:04000000B6EF73F0F4
:10E68600010101014401005E01004F010023330333
:10E6960013010101010101534E0E0B6E000E0C6EAB
:10E6A60073EC76F04C0E0B6E000E0C6E73EC76F07F
:10E6B60012004E0E0B6E000E0C6EDFEC76F04C0E5A
:10E6C6000B6E000E0C6EDFEC76F012004C0E0B6E2D
:10E6D600000E0C6E4BEC77F04E0E0B6E000E0C6EB1
:10E6E6004BEC77F012000A500B10D8A47DEF73F0B4
:10E6F6007FEF73F081EF73F087EF73F00AC001F0DC
:10E706000BC002F068EC7AF0120001500302F3CF5E
:10E7160005F0F4CF06F001500402F350062602502D
:10E726000302F350062605C001F006C002F01200EF
:10E73700800F810F820F830F840F890F8A0F8B0F32
:10E747008C0F8D0F920F930F940F950F960F32002A
:10E757001010001102000110141213005C01004692
:10E7670001004E0100370EF66EE70EF76E000EF849
:10E777006E00EE60F010EE35F00900F5CFEEFFE524
:10E7870050E150FAE1860EF66EE60EF76E000EF8CF
:10E797006E00EE3FF010EE18F00900F5CFEEFFE542
:10E7A70050E150FAE100EE57F0090EEE6AE806FD77
:10E7B700E1000EF86E0001A9EF7CF001500210D8BD
:10E7C700A4E8EF73F0EAEF73F0ECEF73F010EF7477
:10E7D700F020EE08F00150D9260250DA22DF50D897
:10E7E700A4F8EF73F0FAEF73F0FEEF73F0F00EBDDD
:10E7F7001610EF74F020EE08F00150D9260250DA17
:10E8070022DE04D8A40AEF74F00CEF74F010EF7452
:10E81700F0F00EBA1610EF74F012000A500B10D871
:10E82700A418EF74F01AEF74F01CEF74F047EF744C
:10E83700F00D9C0AC0D9FF0BC0DAFFDF38070B0CBD
:10E847006E0D500C18F80B0C180D6E0AC0D9FF0B83
:10E85700C0DAFFDF500F0B0C6E0C460C460C460D52
:10E86700500C18C70B0C180D6E0AC0D9FF0BC0DA75
:10E87700FFDFAE02D00D8E01D00D9E0D0E016E0092
:10E887000E026E68EC7AF012000B500C10D8A44FF1
:10E89700EF74F051EF74F053EF74F080EF74F00EF3
:10E8A7009C0BC0D9FF0CC0DAFFDF38070B0D6E0ECB
:10E8B700500D18F80B0D180E6E0BC0D9FF0CC0DAEF
:10E8C700FFDF500F0B0D6E0D460D460D460E500D1A
:10E8D70018C70B0D180E6E0BC0D9FF0CC0DAFFDF7F
:10E8E700AE02D00E8E01D00E9E0E0E016E000E02ED
:10E8F7006E000E036EB7EC78F012000B500C10D8B8
:10E90700A488EF74F08AEF74F08CEF74F0B9EF74A9
:10E91700F00E9C0BC0D9FF0CC0DAFFDF38070B0DD8
:10E927006E0E500D18F80B0D180E6E0BC0D9FF0C9C
:10E93700C0DAFFDF500F0B0D6E0D460D460D460E6C
:10E94700500D18C70B0D180E6E0BC0D9FF0CC0DA8F
:10E95700FFDFAE02D00E8E01D00E9E0E0E016E00AE
:10E967000E026E010E036EB7EC78F0120001500232
:10E9770010D8A4C1EF74F0C3EF74F0C5EF74F0F5CD
:10E98700EF74F020EE08F00150D9260250DA22DFAA
:10E9970050D8A4D1EF74F0D3EF74F0D9EF74F0BD71
:10E9A70050F00B0C09BD6EF5EF74F020EE08F00186
:10E9B70050D9260250DA22DE04D8A4E5EF74F0E736
:10E9C700EF74F0F5EF74F0BA50F00B0C09BA6E9EC5
:10E9D700A2F0EF74F0F2EF74F0F5EF74F09492F5A3
:10E9E700EF74F0120001500210D8A4FDEF74F0FF8D
:10E9F700EF74F001EF75F032EF75F001C0D9FF0247
:10EA0700C0DAFFDF50070B056E01C0D9FF02C0DA7D
:10EA1700FFDF30E832E832070B066E0650020D6062
:10EA27000EF324D96E000EF420DA6EDECF07F0DD88
:10EA3700CF08F007C0D9FF08C0DAFFDF50096E051D
:10EA47002A28EF75F0D8900932052E26EF75F009C0
:10EA570050010B03C0D9FF04C0DAFFDF6E12000BB1
:10EA6700500C10D8B43AEF75F03CEF75F044EF75E1
:10EA7700F0090E0D6442EF75F044EF75F046EF753F
:10EA8700F075EF75F00BC001F00CC002F00D5001EE
:10EA97000B036EB7EC78F0010E0B24016E000E0C21
:10EAA70020026ED8900D30010B036EB7EC78F002A0
:10EAB7000E0B24016E000E0C20026E0D40E8423F43
:10EAC7000B010B036EB7EC78F0030E0B24016E00FD
:10EAD7000E0C20026E0D38E8461F0B010B036EB7B4
:10EAE700EC78F01200490E0A6E000E0B6E76EC738E
:10EAF700F0920E0A6E000E0B6E76EC73F08F0E0A14
:10EB07006E000E0B6E76EC73F08C0E0A6E000E0B19
:10EB17006E76EC73F0460E0A6E000E0B6E76EC7393
:10EB2700F0430E0A6E000E0B6E76EC73F0560E0A6B
:10EB37006E000E0B6E11EC74F04E0E0A6E000E0B8B
:10EB47006E0BEC76F04C0E0A6E000E0B6E0BEC762D
:10EB5700F0870E0A6E000E0B6ED2EC79F07E0E0E69
:10EB67006E000E0F6E08EC7BF01200000E096E00AF
:10EB77000E0A6E000E0B6E000E0C6E055006100787
:10EB8700100810D8B4CAEF75F0CCEF75F002EF7625
:10EB9700F0010E0D6ED6EF75F0D8900536063607E4
:10EBA7003608360D2A08AEDBEF75F0DDEF75F0D0CD
:10EBB700EF75F0D89009360A360B360C360550013A
:10EBC7005C065002580750035808500458D8A0EF65
:10EBD700EF75F0F1EF75F0FAEF75F00550015E068D
:10EBE70050025A0750035A0850045A0980D890080F
:10EBF700320732063205320D2EDDEF75F009C001FE
:10EC0700F00AC002F00BC003F00CC004F012000AB7
:10EC1700500B10D8A412EF76F014EF76F016EF76BB
:10EC2700F072EF76F00AC0D9FF0BC0DAFFDF500FA2
:10EC37000B0C6E0C460C460C460D500C18C70B0CF3
:10EC4700180D6E0AC0D9FF0BC0DAFFDF38070B0CAF
:10EC57006E0D500C18F80B0C180D6E20EE01F00A13
:10EC670050D9260B50DA22DF500F0B0C6E0C460CD6
:10EC7700460C460E500C18C70B0C180E6E20EE01F2
:10EC8700F00A50D9260B50DA22DF38070B0C6E0E2C
:10EC9700500C18F80B0C180E6E0D9C0AC0D9FF0B00
:10ECA700C0DAFFDFAE02D00D8E01D00D9E0E9C2084
:10ECB700EE01F00A50D9260B50DA22DFAE02D00E51
:10ECC7008E01D00E9E0D0E016E000E026E68EC7A5C
:10ECD700F00E0E016E000E026E68EC7AF012000B59
:10ECE700500C10D8A47AEF76F07CEF76F07EEF76B2
:10ECF700F0DEEF76F00BC0D9FF0CC0DAFFDF500F64
:10ED07000B0D6E0D460D460D460E500D18C70B0D1B
:10ED1700180E6E0BC0D9FF0CC0DAFFDF38070B0DDA
:10ED27006E0E500D18F80B0D180E6E20EE01F00B3D
:10ED370050D9260C50DA22DF500F0B0D6E0D460D01
:10ED4700460D460F500D18C70B0D180F6E20EE011C
:10ED5700F00B50D9260C50DA22DF38070B0D6E0F57
:10ED6700500D18F80B0D180F6E0E9C0BC0D9FF0C29
:10ED7700C0DAFFDFAE02D00E8E01D00E9E0F9C20B0
:10ED8700EE01F00B50D9260C50DA22DFAE02D00F7D
:10ED97008E01D00F9E0E0E016E000E026E000E0346
:10EDA7006EB7EC78F00F0E016E000E026E010E03C7
:10EDB7006EB7EC78F012000B500C10D8A4E6EF7683
:10EDC700F0E8EF76F0EAEF76F04AEF77F00BC0D98C
:10EDD700FF0CC0DAFFDF500F0B0D6E0D460D460D11
:10EDE700460E500D18C70B0D180E6E0BC0D9FF0C31
:10EDF700C0DAFFDF38070B0D6E0E500D18F80B0D3C
:10EE0700180E6E20EE01F00B50D9260C50DA22DFD7
:10EE1700500F0B0D6E0D460D460D460F500D18C7C2
:10EE27000B0D180F6E20EE01F00B50D9260C50DA9F
:10EE370022DF38070B0D6E0F500D18F80B0D180F4A
:10EE47006E0E9C0BC0D9FF0CC0DAFFDFAE02D00EEE
:10EE57008E01D00E9E0F9C20EE01F00B50D9260C90
:10EE670050DA22DFAE02D00F8E01D00F9E0E0E01B8
:10EE77006E000E026E010E036EB7EC78F00F0E01F6
:10EE87006E000E026E000E036EB7EC78F012000BE8
:10EE9700500C10D8A452EF77F054EF77F056EF7775
:10EEA700F0B6EF77F00BC0D9FF0CC0DAFFDF500FD9
:10EEB7000B0D6E0D460D460D460E500D18C70B0D6A
:10EEC700180E6E0BC0D9FF0CC0DAFFDF38070B0D29
:10EED7006E0E500D18F80B0D180E6E20EE01F00B8C
:10EEE70050D9260C50DA22DF500F0B0D6E0D460D50
:10EEF700460D460F500D18C70B0D180F6E20EE016B
:10EF0700F00B50D9260C50DA22DF38070B0D6E0FA5
:10EF1700500D18F80B0D180F6E0E9C0BC0D9FF0C77
:10EF2700C0DAFFDFAE02D00E8E01D00E9E0F9C20FE
:10EF3700EE01F00B50D9260C50DA22DFAE02D00FCB
:10EF47008E01D00F9E0E0E016E000E026E000E0394
:10EF57006EB7EC78F00F0E016E000E026E000E0316
:10EF67006EB7EC78F01200000E0F6E0A500B10D837
:10EF7700B4C0EF77F0C2EF77F0CBEF77F00C500D1E
:10EF870010D8A4C9EF77F0CBEF77F0CDEF77F03358
:10EF9700EF78F00AC001F00BC002F00F0E036E000D
:10EFA7000E046EF6EC74F00F04D8A4DDEF77F0DFF3
:10EFB700EF77F00BEF78F020EE02F00A50D9260B2E
:10EFC70050DA22DF50D8A4EBEF77F0EDEF77F0F5CA
:10EFD700EF77F00CC0D9FF0DC0DAFF000EDF6E33FC
:10EFE700EF78F020EE02F00A50D9260B50DA22DE35
:10EFF70004D8A401EF78F003EF78F033EF78F00C42
:10F00700C0D9FF0DC0DAFF010EDF6E33EF78F00FC6
:10F0170050D8A411EF78F013EF78F033EF78F020A1
:10F02700EE02F00A50D9260B50DA22DE04D8A41FCC
:10F03700EF78F021EF78F023EF78F0EDEF77F0201D
:10F04700EE02F00A50D9260B50DA22DF50D8A42F4F
:10F05700EF78F031EF78F033EF78F003EF78F012D4
:10F067000030343134376E3750D8A43DEF78F03F55
:10F07700EF78F049EF78F0000E2E6E000E2F6E003D
:10F087000E306E000E316EB6EF78F02EC032F02FD4
:10F09700C033F030C034F031C035F0200E59EF786E
:10F0A700F0D8903532343233323232E82E54EF789A
:10F0B700F03250366E308EFF0E2E16FF0E2F16FFD3
:10F0C7000E3016000E3116960E375E37BE70EF788B
:10F0D700F06EEF78F086EF78F03750800A970FD808
:10F0E700B078EF78F07AEF78F07CEF78F03FEF7850
:10F0F700F0D890313230322F322E32373E7CEF78D3
:10F10700F09EEF78F01F0E37648CEF78F08EEF7873
:10F11700F096EF78F03FEF78F0D8902E362F363014
:10F1270036313637063750D8A49CEF78F09EEF7803
:10F13700F090EF78F03650D8B4A4EF78F0A6EF78D7
:10F14700F0AEEF78F0311E301E2F1E2E6C000E2F02
:10F1570022302231222EC02EF02FC02FF030C030A7
:10F16700F031C031F01200010E0A6E01500210D8C2
:10F17700A4C0EF78F0C2EF78F025EF79F0000E0A1F
:10F187006E3AEF79F001C0D9FF02C0DAFFDF50070E
:10F197000B046E010E056E042AD4EF78F0D89005A3
:10F1A70036042ED2EF78F001C0D9FF02C0DAFFDFB4
:10F1B70030E832E832070B066E0650020D6A0EF38E
:10F1C70024D96E000EF420DA6EDECF07F0DDCF080B
:10F1D700F007C0D9FF08C0DAFF0550DF123AEF7910
:10F1E700F001C0D9FF02C0DAFFDF50070B046E0140
:10F1F7000E056E042A02EF79F0D8900536042E002A
:10F20700EF79F00550FF0A066E01C0D9FF02C0DA98
:10F21700FFDF30E832E832070B076E0750020D6A4E
:10F227000EF324D96E000EF420DA6EDECF08F0DD7F
:10F23700CF09F008C0D9FF09C0DAFF0650DF163A38
:10F24700EF79F00350046E056A0550000AD8B42F11
:10F25700EF79F0C2EF78F00450000AD8B4F4EF78F1
:10F26700F0010AD8B4C6EF78F0C2EF78F00A50126E
:10F2770000000E3E6E000E3D6E38503910D8A44780
:10F28700EF79F049EF79F04BEF79F0D1EF79F000B2
:10F297000E196E000E1A6EC80E1B6E420E1C6E0102
:10F2A7000ECB24016E026A000E02223A50040DF3BF
:10F2B700CF03F0F4CF04F088EC73F001C007F0023D
:10F2C700C008F0000E08BEFF0E096E0A6E010ECFD1
:10F2D700EC7BF007C015F008C016F009C017F00A5C
:10F2E700C018F033EC7EF015C02EF016C02FF017C3
:10F2F700C030F018C031F034EC78F02EC03DF02F5C
:10F30700C03EF020EE08F03850D9263950DA22DF17
:10F3170050D8A491EF79F093EF79F0ABEF79F03D06
:10F32700C03BF0030E3B163B3ABD503B18CF0B3B9F
:10F3370018BD6E3DC03BF03EC03CF0D8903C323B20
:10F3470032D8903C323B323B50BE6ED1EF79F02041
:10F35700EE08F03850D9263950DA22DE04D8A4B79F
:10F36700EF79F0B9EF79F0D1EF79F03DC03BF003D9
:10F377000E3B163B3ABA503B18CF0B3B18BA6E3DC3
:10F38700C03BF03EC03CF0D8903C323B32D8903C7A
:10F39700323B323B50BB6ED1EF79F012000A500B73
:10F3A70010D8A4D9EF79F0DBEF79F0DDEF79F067CA
:10F3B700EF7AF00AC0D9FF0BC0DAFFDF9C20EE011D
:10F3C700F00A50D9260B50DA22DF9C20EE02F00A11
:10F3D70050D9260B50DA22DF9C20EE03F00A50D9D1
:10F3E700260B50DA22DF9C20EE04F00A50D9260BB8
:10F3F70050DA22DF50D8A403EF7AF005EF7AF02134
:10F40700EF7AF00AC0D9FF0BC0DAFFDF9E20EE01CA
:10F41700F00A50D9260B50DA22DF9E20EE02F00ABE
:10F4270050D9260B50DA22DF9E20EE03F00A50D97E
:10F43700260B50DA22DF9E49EF7AF020EE04F00A1D
:10F4470050D9260B50DA22DE04D8A42DEF7AF02FFC
:10F45700EF7AF049EF7AF00AC0D9FF0BC0DAFFDF85
:10F467008E20EE01F00A50D9260B50DA22DF8E20CB
:10F47700EE02F00A50D9260B50DA22DF8E20EE0377
:10F48700F00A50D9260B50DA22DF8E0AC001F00BA2
:10F49700C002F068EC7AF0010E0A24016E000E0B30
:10F4A70020026E68EC7AF0020E0A24016E000E0B41
:10F4B70020026E68EC7AF0030E0A24016E000E0B30
:10F4C70020026E68EC7AF01200010E096E015002FC
:10F4D70010D8B471EF7AF073EF7AF082EF7AF00117
:10F4E700C0D9FF02C0DAFFDF50070B036E070E0318
:10F4F7006480EF7AF082EF7AF0E5EF7AF0000E0998
:10F507006E06EF7BF001C0D9FF02C0DAFFDF5007BC
:10F517000B036E010E046E032A94EF7AF0D8900461
:10F5270036032E92EF7AF001C0D9FF02C0DAFFDF6F
:10F5370030E832E832070B056E0550020D740EF302
:10F5470024D96E000EF420DA6EDECF06F0DDCF0789
:10F55700F006C0D9FF07C0DAFF0450DF1206EF7BC1
:10F56700F001C0D9FF02C0DAFFDF50070B036E01BD
:10F577000E046E032AC2EF7AF0D8900436032EC029
:10F58700EF7AF00450FF0A056E01C0D9FF02C0DA16
:10F59700FFDF30E832E832070B066E0650020D74C3
:10F5A7000EF324D96E000EF420DA6EDECF07F0DDFD
:10F5B700CF08F007C0D9FF08C0DAFF0550DF1606ED
:10F5C700EF7BF001C0D9FF02C0DAFFDFBCEEEF7AB4
:10F5D700F0F1EF7AF0010EF2EF7AF0000E036E040D
:10F5E7006A0450000AD8B4FBEF7AF082EF7AF0038E
:10F5F70050000AD8B4B4EF7AF0010AD8B486EF7A8B
:10F60700F082EF7AF0095012000E500F10D8A40FB5
:10F61700EF7BF011EF7BF013EF7BF0CEEF7BF00584
:10F627000E0E24016E000E0F20026E68EC7AF02099
:10F63700EE08F00E50D9260F50DA22DF50D8A42753
:10F64700EF7BF029EF7BF02DEF7BF0F00EBD163D41
:10F65700EF7BF020EE08F00E50D9260F50DA22DEAD
:10F6670004D8A439EF7BF03BEF7BF03DEF7BF0F064
:10F677000EBA1620EE06F00E50D9260F50DA2202E7
:10F687000EDE18D8A44AEF7BF04CEF7BF0CEEF7B71
:10F69700F020EE08F00E50D9260F50DA22DF50D8AE
:10F6A700A458EF7BF05AEF7BF060EF7BF0BD50F092
:10F6B7000B0C09BD6E72EF7BF020EE08F00E50D9EF
:10F6C700260F50DA22DE04D8A46CEF7BF06EEF7BB6
:10F6D700F072EF7BF0BA50F00B0C09BA6E0EC0D97E
:10F6E700FF0FC0DAFFDECF10F0DDCF11F010C0053D
:10F6F700F011C006F0076A086A400E016E420E025A
:10F707006E0F0E036E000E046EB9EC75F001C01299
:10F71700F002C013F003C014F004C015F020EE028D
:10F72700F00E50D9260F50DA22DF50106E10500518
:10F737006E066A076A086A12C001F013C002F01465
:10F74700C003F015C004F0B9EC75F001C016F00263
:10F75700C017F003C018F004C019F016C001F01765
:10F76700C002F018C003F019C004F020EE03F00E39
:10F7770050D9260F50DA22DF50106E1050056E0652
:10F787006A076A086AB9EC75F00104CB6E9E92FCB1
:10F797000ECA16CA8412000F6E0F50D8B4D6EF7B6C
:10F7A700F0D8EF7BF0FAEF7BF00ABEDFEF7BF0DDFE
:10F7B700EF7BF0FAEF7BF007C00BF008C00CF00905
:10F7C700C00DF00AC00EF00B1E0C1E0D1E0E1E0BF8
:10F7D7002A000E0C220D220E220BC011F00CC012B3
:10F7E700F00DC013F00EC014F002EF7CF007C0114B
:10F7F700F008C012F009C013F00AC014F00750084F
:10F807001009100A10D8A40BEF7CF00DEF7CF0174D
:10F81700EF7CF0000E076E000E086E000E096E00FA
:10F827000E0A6EA8EF7CF0960E106E21EF7CF0109A
:10F837002AD8901432133212321132000E11140BDF
:10F847006E000E12140C6E000E13140D6EFE0E14C5
:10F85700140E6E0B500C100D100E10D8A436EF7C42
:10F86700F038EF7CF01BEF7CF046EF7CF0102A01BC
:10F877000E1126000E122213221422D890143213CE
:10F887003212321132000E11140B6E000E12140CCC
:10F897006E000E13140D6EFF0E14140E6E0B500C2B
:10F8A700100D100E10D8A45BEF7CF05DEF7CF03AE2
:10F8B700EF7CF065EF7CF01006D890113612361306
:10F8C70036143613BE6AEF7CF06CEF7CF074EF7C75
:10F8D700F0020E106072EF7CF074EF7CF05FEF7C4B
:10F8E700F010B079EF7CF07BEF7CF07CEF7CF013CD
:10F8F7009ED890103210C00BF00C6A0D6A0E6A0B7E
:10F90700C00EF00D6A0C6A0B6A0B5011120C5012E4
:10F91700120D5013120E5014120F50D8B496EF7CDC
:10F92700F098EF7CF0A0EF7CF00ABE9FEF7CF09D93
:10F93700EF7CF0A0EF7CF0148E11C007F012C00826
:10F94700F013C009F014C00AF0120076EC75F08FBE
:10F957000E0A6E000E0B6E510E0C6E000E0D6EB77A
:10F96700EC77F08C0E0A6E000E0B6E500E0C6E00CC
:10F977000E0D6EB7EC77F0920E0A6E000E0B6E54FA
:10F987000E0C6E000E0D6EB7EC77F0490E0A6E0086
:10F997000E0B6E550E0C6E000E0D6EB7EC77F04326
:10F9A7000E0A6E000E0B6E520E0C6E000E0D6EB729
:10F9B700EC77F0460E0A6E000E0B6E530E0C6E00BF
:10F9C7000E0D6EB7EC77F05550D8A4EDEF7CF0EF45
:10F9D700EF7CF0F5EF7CF0560E0B6E000E0C6E818F
:10F9E700EC74F05450D8A4FBEF7CF0FDEF7CF003EF
:10F9F700EF7DF0560E0B6E000E0C6E48EC74F05255
:10FA070050D8A409EF7DF00BEF7DF01CEF7DF05788
:10FA17004A582A585009E10B0E575CD8A016EF7DBB
:10FA2700F018EF7DF02AEF7DF0000E3F6E2AEF7D94
:10FA3700F05204D8A422EF7DF024EF7DF02AEF7D69
:10FA4700F0000E586E000E576E010E3F6E5350D8E1
:10FA5700A430EF7DF032EF7DF043EF7DF05D4A5E3D
:10FA67002A5E5009E10B0E5D5CD8A03DEF7DF03FAB
:10FA7700EF7DF051EF7DF0000E406E51EF7DF053BA
:10FA870004D8A449EF7DF04BEF7DF051EF7DF001F5
:10FA97000E406E000E5E6E000E5D6E3F50D8A4578E
:10FAA700EF7DF059EF7DF05BEF7DF05CEC73F0409C
:10FAB70050D8A461EF7DF063EF7DF065EF7DF04FE7
:10FAC700EC73F03F04D8A46BEF7DF06DEF7DF0771A
:10FAD700EF7DF04004D8A473EF7DF075EF7DF077EC
:10FAE700EF7DF069EC73F04250D8A47DEF7DF07F95
:10FAF700EF7DF0A8EF7DF0040E5F6085EF7DF08766
:10FB0700EF7DF088EF7DF05F2A7E0E016E000E021A
:10FB17006EE1EC73F07E0E016E000E026EBAEC74AD
:10FB2700F07E0E386E000E396E5F50190DF3CF3A26
:10FB3700F03CEC79F0010E426E870E0B6E000E0C56
:10FB47006E5FC00DF033EC75F04150D8A4AEEF7D79
:10FB5700F0B0EF7DF0D9EF7DF05F50D8B4B6EF7D10
:10FB6700F0B8EF7DF0B9EF7DF05F067E0E016E0015
:10FB77000E026EE1EC73F07E0E016E000E026EBA9D
:10FB8700EC74F07E0E386E000E396E5F50190DF36F
:10FB9700CF3AF03CEC79F0010E416E870E0B6E0008
:10FBA7000E0C6E5FC00DF033EC75F05150D8A4DF2A
:10FBB700EF7DF0E1EF7DF0F6EF7DF05B4A5C2A5CCC
:10FBC7005009E1650E5B5CD8A0ECEF7DF0EEEF7DB0
:10FBD700F004EF7EF0000E426E000E5C6E000E5BCE
:10FBE7006E04EF7EF05104D8A4FCEF7DF0FEEF7DAC
:10FBF700F004EF7EF0000E5C6E000E5B6E010E42AD
:10FC07006E5050D8A40AEF7EF00CEF7EF021EF7E05
:10FC1700F0594A5A2A5A5009E1650E595CD8A0177B
:10FC2700EF7EF019EF7EF0ABEF7CF0000E416E0037
:10FC37000E5A6E000E596EABEF7CF05004D8A42715
:10FC4700EF7EF029EF7EF0ABEF7CF0000E5A6E00EE
:10FC57000E596E010E416EABEF7CF000EF00F0180D
:10FC670050800B256E185018242C6E17AE3EEF7E71
:10FC7700F040EF7EF041EF7EF02C802C50D8B44757
:10FC8700EF7EF049EF7EF05EEF7EF02C28D8A44F90
:10FC9700EF7EF051EF7EF059EF7EF0000E156E000B
:10FCA7000E166E000E176E000E186E178E000E18C9
:10FCB7006E66EF7EF0000E156E000E166E000E17C4
:10FCC7006E000E186E1C50800B251A1C501C242D1C
:10FCD7006E1BAE71EF7EF073EF7EF074EF7EF02D4A
:10FCE700802D50D8B47AEF7EF07CEF7EF091EF7ED6
:10FCF700F02D28D8A482EF7EF084EF7EF08CEF7E83
:10FD0700F0000E196E000E1A6E000E1B6E000E1C10
:10FD17006E1B8E000E1C6E99EF7EF0000E196E00A2
:10FD27000E1A6E000E1B6E000E1C6E19501A101B59
:10FD3700101C10D8A4A2EF7EF0A4EF7EF0BCEF7EDB
:10FD4700F0000E156E000E166E000E176E000E18E0
:10FD57006E800E17127F0E18122550181215C01537
:10FD6700F016C016F017C017F018C018F0FFEF7F95
:10FD7700F02C50D8A4C2EF7EF0C4EF7EF0CEEF7E19
:10FD8700F0000E156E000E166E000E176E000E18A0
:10FD97006EFFEF7FF02D502CC01DF01E6A1D5E0018
:10FDA7000E1E5A7F0E1D24266E000E1E20276E156E
:10FDB700C021F016C022F017C023F018C024F000AD
:10FDC7000E156E000E166E000E176E000E186E00E2
:10FDD7000E286E000E296E000E2A6E000E2B6E0086
:10FDE7000E2D6E2FEF7FF02D50D8B4FDEF7EF0FF74
:10FDF700EF7EF016EF7FF0D8902136223623362497
:10FE070036D89015361636173618362BAE0EEF7FC6
:10FE1700F010EF7FF011EF7FF01580D8902836298A
:10FE2700362A362B361950215C1A5022581B50237C
:10FE3700581C502458D8A023EF7FF025EF7FF02ED1
:10FE4700EF7FF02B8C1950215E1A50225A1B50233A
:10FE57005A1C50245A2D2A190E2D6435EF7FF0377E
:10FE6700EF7FF0F7EF7EF02150221023102410D8F7
:10FE7700B440EF7FF042EF7FF05AEF7FF028805ACF
:10FE8700EF7FF0D89015361636173618362BAE4F4B
:10FE9700EF7FF051EF7FF052EF7FF01580D8902879
:10FEA7003629362A362B362606D8A0270617AE5F00
:10FEB700EF7FF061EF7FF045EF7FF0000E2D6E2BA7
:10FEC700AE68EF7FF06AEF7FF08EEF7FF0FF0E28CE
:10FED700141D6EFF0E29141E6EFF0E2A141F6E7F4F
:10FEE7000E2B14206E1D501E101F102010D8B47F2B
:10FEF700EF7FF081EF7FF085EF7FF0010E2D6E8EA3
:10FF0700EF7FF015A08AEF7FF08CEF7FF08EEF7F09
:10FF1700F081EF7FF02D50D8B494EF7FF096EF7F0C
:10FF2700F0BAEF7FF0010E1526000E1622172218E1
:10FF37002218A0A1EF7FF0A3EF7FF0BAEF7FF015B3
:10FF4700C01DF016C01EF017C01FF018C020F0200B
:10FF57003420321F321E321D321DC015F01EC0164E
:10FF6700F01FC017F020C018F0264A272A27BEC561
:10FF7700EF7FF0275008E12628D8A0C5EF7FF0C70C
:10FF8700EF7FF0D2EF7FF0000E276E2668000E1588
:10FF97006E000E166E000E176E000E186E27BEDF6F
:10FFA700EF7FF0275006E12604D8B0DDEF7FF0DFC2
:10FFB700EF7FF0EDEF7FF0000E276E000E266E004C
:10FFC7000E156E000E166E000E176E000E186E00E0
:10FFD7000E256E26C02CF02CA0F4EF7FF0F6EF7FF5
:10FFE700F0F9EF7FF0178EFAEF7FF0179ED8902C7D
:09FFF70030186EB0EF7EF012002C
:020000040020DA
:08000000FFFFFFFFFFFFFFFF00
:020000040030CA
:0E000000FF071F1FFF8B85FF0FC00FE00F4093
:00000001FF
